:020000020000FC
:020000000123DA
:02002000456732
:0400400089ABCDEFCC
:100200000E948A010E948B010E948C010C940601BD
:100210000E942D010E9419010E9423010C948B0160
:10022000460001001901690310E20E948C0119E0E7
:100230001AB918E20E948C0119E01AB911E00E9463
:100240008C0119E01AB916E00E948C0119E01AB964
:100250001CE00E948C0119E01AB912E00E948C0186
:1002600019E01AB90C9432010E9459010E9445010B
:100270000E944F010C948B019E0001004501ED038B
:1002800010E20E948C0119E01AB918E20E948C0158
:1002900019E01AB911E00E948C0119E01AB916E0B0
:1002A0000E948C0119E01AB91CE00E948C0119E02F
:1002B0001AB912E00E948C0119E01AB90C945E017F
:1002C0000E9485010E9471010E947B010C948B01A8
:1002D000F60001007101710410E20E948C0119E026
:1002E0001AB918E20E948C0119E01AB911E00E94B3
:1002F0008C0119E01AB916E00E948C0119E01AB9B4
:100300001CE00E948C0119E01AB912E00E948C01D5
:1003100019E01AB90895089508950100FFFF01003A
:10032000010001000000FFFF0000010001000100CA
:060330000000FFFF0000C9
:00000001FF
