:020000020000FC
:10000000001F000FCF96CF9600230F7F2595889471
:1000100020F908F408F008F408F0E8F7E8F3E8F746
:10002000E8F39895E9F3EDF7EDF3EFF7EFF3E8F385
:10003000ECF3EAF3E9F7EAF7E8F7EEF7EEF3EBF7BC
:10004000EBF3089400FA0E940A000E940000F8985E
:1000500000708894D894F894A8942227C894E894BF
:10006000B89498942095001700070F3F00132A9525
:10007000D8952691279100270803800388030995C6
:1000800009942FB723950C940A000C9400002C912E
:100090002D912E91288129912A91208121912291BF
:1000A0002FAD27AD0FEF2091FFFFC895249125912B
:1000B000220F2695002FDE01DE01009F0002219510
:1000C0000000002B0F6F2FBF2F912F93F5DF0895A6
:1000D000189509C0221F2795000B0F4FF89AF89921
:1000E000F89BCF97CF970F6F20FD20FF089458946F
:1000F000789428940FEF48946894389418948895CD
:10010000E8952C932D932E93288329932A9320836B
:10011000219322932FAF27AF2093FFFF001B0F5F88
:1001200022952223A8955B941995199426932593DB
:060130002793E8952493DB
:00000001FF
